:100000000C942A000C943F000C943F000C943F0089
:100010000C943F000C943F000C943F000C943F0064
:100020000C943F000C943F000C943F000C943F0054
:100030000C943F000C943F000C943F000C943F0044
:100040000C943F000C943F000C943F000C943F0034
:100050000C943F0011241FBECFE5D8E0DEBFCDBF1A
:1000600011E0A0E6B0E0E2E1FFE402C005900D92ED
:10007000A434B107D9F70E94B1250C9487270C94BA
:100080000000CF93DF9300D00F92CDB7DEB7898306
:100090006A834B838A81883008F0DBC08B81813092
:1000A00009F067C08981882F90E082309105A9F11D
:1000B000833091050CF047C0009719F00197B9F013
:1000C00042C08AE390E0FC018081482F8A81282F7A
:1000D00030E081E090E002C0880F991F2A95E2F796
:1000E000242F282B8AE390E0FC012083B2C087E311
:1000F00090E0FC018081482F8A81282F30E081E048
:1001000090E002C0880F991F2A95E2F7242F282B30
:1001100087E390E0FC0120839CC084E390E0FC0135
:100120008081482F8A81282F30E081E090E002C052
:10013000880F991F2A95E2F7242F282B84E390E05B
:10014000FC01208386C081E390E0FC018081482F80
:100150008A81282F30E081E090E002C0880F991F4B
:100160002A95E2F7242F282B81E390E0FC012083DD
:1001700070C08B81882309F06BC08981882F90E043
:1001800082309105B9F1833091050CF04AC0009797
:1001900019F00197C1F045C08AE390E0FC0180812D
:1001A000482F8A81282F30E081E090E002C0880F3C
:1001B000991F2A95E2F78095242F28238AE390E05F
:1001C000FC01208346C087E390E0FC018081482F3A
:1001D0008A81282F30E081E090E002C0880F991FCB
:1001E0002A95E2F78095242F282387E390E0FC01ED
:1001F00020832FC084E390E0FC018081482F8A8116
:10020000282F30E081E090E002C0880F991F2A95E6
:10021000E2F78095242F282384E390E0FC012083DB
:1002200018C081E390E0FC018081482F8A81282F4B
:1002300030E081E090E002C0880F991F2A95E2F734
:100240008095242F282381E390E0FC01208301C0C6
:10025000000000000F900F900F90DF91CF91089554
:10026000CF93DF9300D0CDB7DEB789836A838981CE
:10027000843030F58981882F90E082309105A1F09B
:1002800083309105BCF4009719F0019739F012C042
:100290008AE390E02A81FC01208312C087E390E08A
:1002A0002A81FC0120830CC084E390E02A81FC01B8
:1002B000208306C081E390E02A81FC0120830000B6
:1002C00000000F900F90DF91CF910895CF93DF93AF
:1002D00000D00F92CDB7DEB789836A834B838A81C2
:1002E000883008F0E1C08B81813021F08B81882338
:1002F00009F0DBC08B81813009F067C08981882FCC
:1003000090E082309105A9F1833091050CF047C04F
:10031000009719F00197B9F042C08BE390E0FC011F
:100320008081482F8A81282F30E081E090E002C050
:10033000880F991F2A95E2F7242F282B8BE390E052
:10034000FC012083B2C088E390E0FC018081482F4B
:100350008A81282F30E081E090E002C0880F991F49
:100360002A95E2F7242F282B88E390E0FC012083D4
:100370009CC085E390E0FC018081482F8A81282F72
:1003800030E081E090E002C0880F991F2A95E2F7E3
:10039000242F282B85E390E0FC01208386C082E394
:1003A00090E0FC018081482F8A81282F30E081E095
:1003B00090E002C0880F991F2A95E2F7242F282B7E
:1003C00082E390E0FC01208370C08B81882309F0D8
:1003D0006BC08981882F90E082309105B9F183301C
:1003E00091050CF04AC0009719F00197C1F045C083
:1003F0008BE390E0FC018081482F8A81282F30E038
:1004000081E090E002C0880F991F2A95E2F780955D
:10041000242F28238BE390E0FC01208346C088E34F
:1004200090E0FC018081482F8A81282F30E081E014
:1004300090E002C0880F991F2A95E2F78095242F3B
:10044000282388E390E0FC0120832FC085E390E01F
:10045000FC018081482F8A81282F30E081E090E0E4
:1004600002C0880F991F2A95E2F78095242F282330
:1004700085E390E0FC01208318C082E390E0FC015A
:100480008081482F8A81282F30E081E090E002C0EF
:10049000880F991F2A95E2F78095242F282382E35D
:1004A00090E0FC01208301C0000000000F900F903D
:1004B0000F90DF91CF910895CF93DF9300D0CDB708
:1004C000DEB789836A838981843030F58981882FFA
:1004D00090E082309105A1F083309105BCF4009743
:1004E00019F0019739F012C08BE390E02A81FC01EA
:1004F000208312C088E390E02A81FC0120830CC095
:1005000085E390E02A81FC01208306C082E390E02D
:100510002A81FC012083000000000F900F90DF91E2
:10052000CF910895CF93DF9300D0CDB7DEB7898305
:100530006A838A81883010F080E04DC08981882FDD
:1005400090E08230910541F183309105ACF5009740
:1005500019F0019789F030C089E390E0FC018081B7
:10056000882F90E02A81222F30E002C09595879550
:100570002A95E2F781702FC086E390E0FC0180812C
:10058000882F90E02A81222F30E002C09595879530
:100590002A95E2F781701FC083E390E0FC0180811F
:1005A000882F90E02A81222F30E002C09595879510
:1005B0002A95E2F781700FC080E390E0FC01808112
:1005C000882F90E02A81222F30E002C095958795F0
:1005D0002A95E2F781700F900F90DF91CF910895E7
:1005E000CF93DF930F92CDB7DEB7898389818430B3
:1005F00010F080E021C08981882F90E08230910541
:1006000091F083309105A4F4009719F0019731F02F
:100610000FC089E390E0FC0180810EC086E390E08A
:10062000FC01808109C083E390E0FC01808104C06B
:1006300083E390E0FC0180810F90DF91CF910895DA
:10064000CF93DF93CDB7DEB741E061E082E00E9457
:10065000410040E061E082E00E9466010000DF911D
:10066000CF910895CF93DF93CDB7DEB741E061E03E
:1006700082E00E9466010000DF91CF910895CF9340
:10068000DF93CDB7DEB740E061E082E00E94660113
:100690000000DF91CF910895CF93DF93CDB7DEB700
:1006A00041E060E082E00E94410040E060E082E0E2
:1006B0000E9466010000DF91CF910895CF93DF93F0
:1006C000CDB7DEB741E060E082E00E946601000045
:1006D000DF91CF910895CF93DF93CDB7DEB740E0A0
:1006E00060E082E00E9466010000DF91CF910895F2
:1006F000CF93DF93CDB7DEB7C454D1090FB6F894CA
:10070000DEBF0FBECDBF41E061E080E00E9441004E
:1007100041E062E080E00E94410080E090E0A0EAD9
:10072000B1E48F87988BA98BBA8B20E030E04AE741
:1007300055E46F85788989899A890E94DA266DA3A4
:100740007EA38FA398A78DA19EA1AFA1B8A58B8BE7
:100750009C8BAD8BBE8B20E030E040E85FE36B8983
:100760007C898D899E890E94BA2588232CF481E09A
:1007700090E0988F8F8B54C020E03FEF4FE757E415
:100780006B897C898D899E890E94D5261816D4F59F
:1007900020E030E040E251E46F85788989899A89C8
:1007A0000E94DA2669A77AA78BA79CA789A59AA594
:1007B000ABA5BCA589A39AA3ABA3BCA369A17AA14D
:1007C0008BA19CA10E9431266DA77EA78FA798AB15
:1007D000ADA5BEA5B88FAF8B10C080E991E09A8F10
:1007E000898F898D9A8D0197F1F79A8F898F0000F3
:1007F0008F89988D0197988F8F8B8F89988D892BF2
:1008000061F719C06B897C898D899E890E94312688
:1008100069AB7AAB8BAB9CAB89A99AA9988F8F8B6C
:100820008F89988D9C8F8B8F8B8D9C8D0197F1F785
:100830009C8F8B8F000041E063E080E00E944100CC
:1008400041E064E080E00E94410041E065E080E03A
:100850000E94410041E066E080E00E94410080E0AB
:1008600090E0A0EAB1E489839A83AB83BC8320E063
:1008700030E04AE755E469817A818B819C810E944E
:10088000DA266DAB7EAB8FAB98AF8DA99EA9AFA9D1
:10089000B8AD8D839E83AF83B88720E030E040E819
:1008A0005FE36D817E818F8198850E94BA258823C0
:1008B0002CF481E090E09A8789875BC020E03FEFCD
:1008C0004FE757E46D817E818F8198850E94D52600
:1008D00018160CF03CC020E030E040E251E46981A1
:1008E0007A818B819C810E94DA2669AF7AAF8BAFC7
:1008F0009CAF89AD9AADABADBCAD8D8F9E8FAF8FE8
:10090000B8A36D8D7E8D8F8D98A10E943126219682
:100910006CAF7DAF8EAF9FAF2197ADADBEADBA8747
:10092000A98710C080E991E09C878B878B859C8587
:100930000197F1F79C878B87000089859A8501973D
:100940009A87898789859A85892B61F71DC06D8172
:100950007E818F8198850E94312625966CAF7DAF70
:100960008EAF9FAF259723968EAD9FAD23979A8725
:10097000898789859A859E878D878D859E85019734
:10098000F1F79E878D87000083E30E94DE0482E3F7
:100990000E94DE0488E20E94DE048CE00E94DE04F5
:1009A00081E00E94DE040000CC5BDF4F0FB6F894BC
:1009B000DEBF0FBECDBFDF91CF9108950F931F9380
:1009C000CF93DF93CDB7DEB7CD5AD1400FB6F894B1
:1009D000DEBF0FBECDBF9E0123543F4FD9018C9384
:1009E00040E061E080E00E9466019E0123563F4F97
:1009F00080E090E0A0E8BFE3F90180839183A283C7
:100A0000B3838E010F551F4FCE0183569F4F2BEAA4
:100A10003AEA4AEA50E4DC016D917D918D919C9116
:100A20000E94DA26C652DF4F688379838A839B83CC
:100A3000CA5DD040C652DF4F88819981AA81BB81AF
:100A4000CA5DD040F80180839183A283B3838E0175
:100A50000B551F4FCE0183569F4F20E030E040E8FA
:100A600050E4DC016D917D918D919C910E94DA267C
:100A7000C252DF4F688379838A839B83CE5DD040E7
:100A8000C252DF4F88819981AA81BB81CE5DD0405F
:100A9000F80180839183A283B383CE018F559F4F4A
:100AA00020E030E040E85FE3DC016D917D918D91C5
:100AB0009C910E94BA2588233CF4CE0187559F4F14
:100AC00021E0FC0120839AC1CE018B559F4F20E08D
:100AD0003FEF4FE757E4DC016D917D918D919C9143
:100AE0000E94D52618160CF023C1CE0183569F4FC5
:100AF00020E030E04AE754E4FC01608171818281AA
:100B000093810E94BF25CE51DF4F688379838A830A
:100B10009B83C25ED040CE51DF4F88819981AA81EC
:100B2000BB81C25ED0409E0126553F4FF9018083B4
:100B30009183A283B3838E0102551F4FCE01865548
:100B40009F4F20E030E04AE755E4DC016D917D9154
:100B50008D919C910E94DA26CA51DF4F6883798378
:100B60008A839B83C65ED040CA51DF4F88819981BA
:100B7000AA81BB81C65ED040F80180839183A283A5
:100B8000B383CE0182559F4F20E030E040E85FE321
:100B9000DC016D917D918D919C910E94BA258823F5
:100BA0004CF4CE018E549F4F21E030E0FC013183A4
:100BB0002083A2C0CE0182559F4F20E03FEF4FE738
:100BC00057E4DC016D917D918D919C910E94D52619
:100BD00018160CF073C0CE0186559F4F20E030E010
:100BE00040E251E4FC0160817181828193810E9425
:100BF000DA26C651DF4F688379838A839B83CA5E76
:100C0000D040C651DF4F88819981AA81BB81CA5EDD
:100C1000D040CA52DF4F88839983AA83BB83C65DC5
:100C2000D0408E010E541F4FCA52DF4F6881798128
:100C30008A819B81C65DD0400E943126C251DF4F20
:100C4000688379838A839B83CE5ED040C251DF4F15
:100C5000E881F981CE5ED040D801ED93FC9325C0A8
:100C6000CE018C549F4F20E931E0DC012D933C9361
:100C7000CE018C549F4FFC01808191810197F1F747
:100C80009E012C543F4FD9018D939C930000CE01BF
:100C90008E549F4F9E012E543F4FF9012081318188
:100CA00021503109DC012D933C93CE018E549F4F8E
:100CB000FC0180819181892B99F639C08E010E54F7
:100CC0001F4FCE0182559F4FDC016D917D918D911B
:100CD0009C910E943126CE50DF4F688379838A83AE
:100CE0009B83C25FD040CE50DF4F88819981C25F25
:100CF000D040F80191838083CE018A549F4F9E019A
:100D00002E543F4FD9012D913C91FC01318320831A
:100D1000CE018A549F4FDC018D919C910197F1F790
:100D20009E012A543F4FF9019183808300007EC0C9
:100D3000CE018F559F4F20E030E04FE753E4DC01B8
:100D40006D917D918D919C910E94D5261816D4F5B8
:100D50008E0108541F4FCE018B559F4FFC016081BF
:100D60007181828193810E943126CA50DF4F68834E
:100D700079838A839B83C65FD040CA50DF4FE88166
:100D8000F981C65FD040D801ED93FC93CE01865423
:100D90009F4F9E0128543F4FD9012D913C91FC015A
:100DA00031832083CE0186549F4FDC018D919C912D
:100DB0000197F1F79E0126543F4FF90191838083FB
:100DC000000034C08E0107551F4FCE018F559F4F35
:100DD000DC016D917D918D919C910E943126C650D0
:100DE000DF4F688379838A839B83CA5FD040C65074
:100DF000DF4F8881CA5FD040F8018083CE018454E0
:100E00009F4F9E0127553F4FD9012C91FC01208314
:100E1000CE0184549F4FDC018C91282F2A95F1F745
:100E2000CE0184549F4FFC012083000041E062E02A
:100E300080E00E9466019E0123583F4F80E090E0D1
:100E4000A0E8BFE3F90180839183A283B3838E017D
:100E50000F571F4FCE0183589F4F2BEA3AEA4AEAB9
:100E600050E4DC016D917D918D919C910E94DA2678
:100E7000C250DF4F688379838A839B83CE5FD040E3
:100E8000C250DF4F88819981AA81BB81CE5FD0405B
:100E9000F80180839183A283B3838E010B571F4F88
:100EA000CE0183589F4F20E030E040E850E4DC0161
:100EB0006D917D918D919C910E94DA26CE5FDE4FDF
:100EC000688379838A839B83C250D140CE5FDE4F93
:100ED00088819981AA81BB81C250D140F801808369
:100EE0009183A283B383CE018F579F4F20E030E0E0
:100EF00040E85FE3DC016D917D918D919C910E94B2
:100F0000BA2588233CF4CE0187579F4F21E0FC018E
:100F100020839AC1CE018B579F4F20E03FEF4FE7D0
:100F200057E4DC016D917D918D919C910E94D526B5
:100F300018160CF023C1CE0183589F4F20E030E0FB
:100F40004AE754E4FC0160817181828193810E94AF
:100F5000BF25CA5FDE4F688379838A839B83C6502F
:100F6000D140CA5FDE4F88819981AA81BB81C6507A
:100F7000D1409E0126573F4FF90180839183A28380
:100F8000B3838E0102571F4FCE0186579F4F20E03B
:100F900030E04AE755E4DC016D917D918D919C91A3
:100FA0000E94DA26C65FDE4F688379838A839B833B
:100FB000CA50D140C65FDE4F88819981AA81BB812A
:100FC000CA50D140F80180839183A283B383CE01BC
:100FD00082579F4F20E030E040E85FE3DC016D91F5
:100FE0007D918D919C910E94BA2588234CF4CE016D
:100FF0008E569F4F21E030E0FC0131832083A2C058
:10100000CE0182579F4F20E03FEF4FE757E4DC01CE
:101010006D917D918D919C910E94D52618160CF0B2
:1010200073C0CE0186579F4F20E030E040E251E48C
:10103000FC0160817181828193810E94DA26C25F06
:10104000DE4F688379838A839B83CE50D140C25F11
:10105000DE4F88819981AA81BB81CE50D140CE528A
:10106000DF4F88839983AA83BB83C25DD0408E0102
:101070000E561F4FCE52DF4F688179818A819B8146
:10108000C25DD0400E943126CE5EDE4F68837983F8
:101090008A839B83C251D140CE5EDE4FE881F981C5
:1010A000C251D140D801ED93FC9325C0CE018C569E
:1010B0009F4F20E931E0DC012D933C93CE018C560B
:1010C0009F4FFC01808191810197F1F79E012C5681
:1010D0003F4FD9018D939C930000CE018E569F4FB8
:1010E0009E012E563F4FF901208131812150310957
:1010F000DC012D933C93CE018E569F4FFC018081E5
:101100009181892B99F639C08E010E561F4FCE0161
:1011100082579F4FDC016D917D918D919C910E9432
:101120003126CA5EDE4F688379838A839B83C651EA
:10113000D140CA5EDE4F88819981C651D140F80105
:1011400091838083CE018A569F4F9E012E563F4F3A
:10115000D9012D913C91FC0131832083CE018A5627
:101160009F4FDC018D919C910197F1F79E012A56CA
:101170003F4FF9019183808300007EC0CE018F57DD
:101180009F4F20E030E04FE753E4DC016D917D910B
:101190008D919C910E94D5261816D4F58E01085683
:1011A0001F4FCE018B579F4FFC016081718182815F
:1011B00093810E943126C65EDE4F688379838A83DD
:1011C0009B83CA51D140C65EDE4FE881F981CA5186
:1011D000D140D801ED93FC93CE0186569F4F9E01DE
:1011E00028563F4FD9012D913C91FC01318320833A
:1011F000CE0186569F4FDC018D919C910197F1F7AE
:101200009E0126563F4FF90191838083000034C030
:101210008E0107571F4FCE018F579F4FDC016D91F5
:101220007D918D919C910E943126C25EDE4F688334
:1012300079838A839B83CE51D140C25EDE4F888101
:10124000CE51D140F8018083CE0184569F4F9E013C
:1012500027573F4FD9012C91FC012083CE018456A2
:101260009F4FDC018C91282F2A95F1F7CE018456EF
:101270009F4FFC0120830000CE0183549F4FDC016F
:101280008C9182958F708170482F63E080E00E947E
:101290006601CE0183549F4FFC0180818295869523
:1012A00087708170482F64E080E00E946601CE0163
:1012B00083549F4FDC018C9182958695869583702F
:1012C0008170482F65E080E00E946601CE01835462
:1012D0009F4FFC018081881F8827881F482F66E068
:1012E00080E00E9466019E0121593F4F80E090E01E
:1012F000A0E8BFE3F90180839183A283B3838E01C9
:101300000D581F4FCE0181599F4F20E030E04AE732
:1013100055E4DC016D917D918D919C910E94DA26BE
:10132000CE5DDE4F688379838A839B83C252D1402E
:10133000CE5DDE4F88819981AA81BB81C252D140A6
:10134000F80180839183A283B383CE018D589F4F90
:1013500020E030E040E85FE3DC016D917D918D910C
:101360009C910E94BA2588234CF4CE0189589F4F46
:1013700021E030E0FC0131832083A2C0CE018D58F2
:101380009F4F20E03FEF4FE757E4DC016D917D91E7
:101390008D919C910E94D52618160CF073C0CE0139
:1013A00081599F4F20E030E040E251E4FC01608130
:1013B0007181828193810E94DA26CA5DDE4F688343
:1013C00079838A839B83C652D140CA5DDE4F888170
:1013D0009981AA81BB81C652D140C253DF4F888315
:1013E0009983AA83BB83CE5CD0408E0109581F4FDE
:1013F000C253DF4F688179818A819B81CE5CD04066
:101400000E943126C65DDE4F688379838A839B8381
:10141000CA52D140C65DDE4FE881F981CA52D1403F
:10142000D801ED93FC9325C0CE0187589F4F20E94A
:1014300031E0DC012D933C93CE0187589F4FFC0196
:10144000808191810197F1F79E0127583F4FD90183
:101450008D939C930000CE0189589F4F9E0129587F
:101460003F4FF9012081318121503109DC012D9359
:101470003C93CE0189589F4FFC0180819181892B3B
:1014800099F639C08E0109581F4FCE018D589F4FD4
:10149000DC016D917D918D919C910E943126C25D00
:1014A000DE4F688379838A839B83CE52D140C25DAD
:1014B000DE4F88819981CE52D140F801918380839B
:1014C000CE0185589F4F9E0129583F4FD9012D913C
:1014D0003C91FC0131832083CE0185589F4FDC0174
:1014E0008D919C910197F1F79E0125583F4FF9018D
:1014F00091838083000040E062E080E00E9466010A
:101500009E01215B3F4F80E090E0A0E8BFE3F9013E
:1015100080839183A283B3838E010D5A1F4FCE0126
:10152000815B9F4F2BEA3AEA4AEA50E4DC016D9175
:101530007D918D919C910E94DA26CE5CDE4F68836E
:1015400079838A839B83C253D140CE5CDE4F8881EE
:101550009981AA81BB81C253D140F80180839183D4
:10156000A283B3838E01095A1F4FCE01815B9F4F27
:1015700020E030E040E850E4DC016D917D918D91F8
:101580009C910E94DA26CA5CDE4F688379838A8345
:101590009B83C653D140CA5CDE4F88819981AA8162
:1015A000BB81C653D140F80180839183A283B3836A
:1015B000CE018D5A9F4F20E030E040E85FE3DC0130
:1015C0006D917D918D919C910E94BA2588233CF468
:1015D000CE01855A9F4F21E0FC0120839AC1CE01A4
:1015E000895A9F4F20E03FEF4FE757E4DC016D91B0
:1015F0007D918D919C910E94D52618160CF023C1E7
:10160000CE01815B9F4F20E030E04AE754E4FC01CB
:1016100060817181828193810E94BF25C65CDE4F0B
:10162000688379838A839B83CA53D140C65CDE4F2B
:1016300088819981AA81BB81CA53D1409E01245AD5
:101640003F4FF90180839183A283B3838E01005AB7
:101650001F4FCE01845A9F4F20E030E04AE755E407
:10166000DC016D917D918D919C910E94DA26C25C86
:10167000DE4F688379838A839B83CE53D140C25CDB
:10168000DE4F88819981AA81BB81CE53D140F80178
:1016900080839183A283B383CE01805A9F4F20E041
:1016A00030E040E85FE3DC016D917D918D919C918C
:1016B0000E94BA2588234CF4CE018C599F4F21E01B
:1016C00030E0FC0131832083A2C0CE01805A9F4FBD
:1016D00020E03FEF4FE757E4DC016D917D918D9164
:1016E0009C910E94D52618160CF073C0CE01845A26
:1016F0009F4F20E030E040E251E4FC0160817181C5
:10170000828193810E94DA26CE5BDE4F68837983E3
:101710008A839B83C254D140CE5BDE4F88819981FE
:10172000AA81BB81C254D140C653DF4F88839983BD
:10173000AA83BB83CA5CD0408E010C591F4FC6538D
:10174000DF4F688179818A819B81CA5CD0400E9489
:101750003126CA5BDE4F688379838A839B83C654B4
:10176000D140CA5BDE4FE881F981C654D140D8012F
:10177000ED93FC9325C0CE018A599F4F20E931E0BB
:10178000DC012D933C93CE018A599F4FFC0180814F
:1017900091810197F1F79E012A593F4FD9018D930D
:1017A0009C930000CE018C599F4F9E012C593F4FB6
:1017B000F9012081318121503109DC012D933C93C5
:1017C000CE018C599F4FFC0180819181892B99F624
:1017D00039C08E010C591F4FCE01805A9F4FDC013A
:1017E0006D917D918D919C910E943126C65BDE4F5B
:1017F000688379838A839B83CA54D140C65BDE4F5A
:1018000088819981CA54D140F80191838083CE01A7
:1018100088599F4F9E012C593F4FD9012D913C91E2
:10182000FC0131832083CE0188599F4FDC018D91CB
:101830009C910197F1F79E0128593F4FF90191833F
:10184000808300007EC0CE018D5A9F4F20E030E0A3
:101850004FE753E4DC016D917D918D919C910E9445
:10186000D5261816D4F58E0106591F4FCE01895A78
:101870009F4FFC0160817181828193810E9431269A
:10188000C25BDE4F688379838A839B83CE54D140C9
:10189000C25BDE4FE881F981CE54D140D801ED938F
:1018A000FC93CE0184599F4F9E0126593F4FD90189
:1018B0002D913C91FC0131832083CE0184599F4FAF
:1018C000DC018D919C910197F1F79E0124593F4FC6
:1018D000F90191838083000034C08E01055A1F4FA7
:1018E000CE018D5A9F4FDC016D917D918D919C9120
:1018F0000E943126CE5ADE4F688379838A839B8388
:10190000C255D140CE5ADE4F8881C255D140F80130
:101910008083CE0182599F4F9E01255A3F4FD901A6
:101920002C91FC012083CE0182599F4FDC018C91C8
:10193000282F2A95F1F7CE0182599F4FFC01208371
:10194000000041E062E080E00E94660180E090E0FB
:10195000A0E8BFE38FA798ABA9ABBAAB2BEA3AEAF2
:101960004AEA50E46FA578A989A99AA90E94DA26C3
:10197000CA5ADE4F688379838A839B83C655D140D8
:10198000CA5ADE4F88819981AA81BB81C655D14050
:101990008BAB9CABADABBEAB20E030E040E850E49D
:1019A0006FA578A989A99AA90E94DA26C65ADE4F9E
:1019B000688379838A839B83CA55D140C65ADE4F98
:1019C00088819981AA81BB81CA55D1408FAB98AFDC
:1019D000A9AFBAAF20E030E040E85FE36BA97CA993
:1019E0008DA99EA90E94BA2588231CF481E08BAFA3
:1019F00076C120E03FEF4FE757E46FA978AD89AD9E
:101A00009AAD0E94D52618160CF013C120E030E0E4
:101A10004AE754E46FA578A989A99AA90E94BF252D
:101A2000C25ADE4F688379838A839B83CE55D14027
:101A3000C25ADE4F88819981AA81BB81CE55D1409F
:101A40008CAF9DAFAEAFBFAF8E01005C1F4F20E0EB
:101A500030E04AE755E46CAD7DAD8EAD9FAD0E94A0
:101A6000DA26CE59DE4F688379838A839B83C256F8
:101A7000D140CE59DE4F88819981AA81BB81C2565F
:101A8000D140F80180839183A283B383CE01805C2F
:101A90009F4F20E030E040E85FE3DC016D917D91F5
:101AA0008D919C910E94BA2588234CF4CE018C5BC9
:101AB0009F4F21E030E0FC01318320839EC0CE01A6
:101AC000805C9F4F20E03FEF4FE757E4DC016D91D2
:101AD0007D918D919C910E94D52618160CF06FC0B7
:101AE00020E030E040E251E46CAD7DAD8EAD9FADC5
:101AF0000E94DA26CA59DE4F688379838A839B83E2
:101B0000C656D140CA59DE4F88819981AA81BB81CE
:101B1000C656D140CA53DF4F88839983AA83BB83BB
:101B2000C65CD0408E010C5B1F4FCA53DF4F6881EB
:101B300079818A819B81C65CD0400E943126C6593A
:101B4000DE4F688379838A839B83CA56D140C65906
:101B5000DE4FE881F981CA56D140D801ED93FC935C
:101B600025C0CE018A5B9F4F20E931E0DC012D9337
:101B70003C93CE018A5B9F4FFC018081918101974C
:101B8000F1F79E012A5B3F4FD9018D939C93000092
:101B9000CE018C5B9F4F9E012C5B3F4FF901208152
:101BA000318121503109DC012D933C93CE018C5BB6
:101BB0009F4FFC0180819181892B99F639C08E015C
:101BC0000C5B1F4FCE01805C9F4FDC016D917D91BE
:101BD0008D919C910E943126C259DE4F6883798392
:101BE0008A839B83CE56D140C259DE4F888199812A
:101BF000CE56D140F80191838083CE01885B9F4F00
:101C00009E012C5B3F4FD9012D913C91FC0131830A
:101C10002083CE01885B9F4FDC018D919C910197C1
:101C2000F1F79E01285B3F4FF9019183808300000B
:101C30006AC020E030E04FE753E46BA97CA98DA98E
:101C40009EA90E94D5261816B4F58E01065B1F4F7B
:101C50006FA978AD89AD9AAD0E943126CE58DE4F7E
:101C6000688379838A839B83C257D140CE58DE4FE5
:101C7000E881F981C257D140D801ED93FC93CE01A0
:101C8000845B9F4F9E01265B3F4FD9012D913C9174
:101C9000FC0131832083CE01845B9F4FDC018D9159
:101CA0009C910197F1F79E01245B3F4FF9019183CD
:101CB0008083000028C06BA97CA98DA99EA90E94E1
:101CC0003126CA58DE4F688379838A839B83C6573F
:101CD000D140CA58DE4FF881C657D140FBAFCE0184
:101CE000825B9F4F2BADDC012C93CE01825B9F4F1B
:101CF000FC018081282F2A95F1F7CE01825B9F4F4E
:101D0000DC012C930000CE0183549F4FFC018081A5
:101D10008170482F63E080E00E946601CE01835409
:101D20009F4FDC018C9186958170482F64E080E0A4
:101D30000E946601CE0183549F4FFC0180818695ED
:101D400086958170482F65E080E00E946601CE0193
:101D500083549F4FDC018C91869586958695817082
:101D6000482F66E080E00E94660180E090E0A0E8F5
:101D7000BFE389A39AA3ABA3BCA320E030E04AE76A
:101D800055E469A17AA18BA19CA10E94DA26C658CC
:101D9000DE4F688379838A839B83CA57D140C658B4
:101DA000DE4F88819981AA81BB81CA57D1408DA31A
:101DB0009EA3AFA3B8A720E030E040E85FE36DA1A9
:101DC0007EA18FA198A50E94BA2588232CF481E0DA
:101DD00090E09AA789A775C020E03FEF4FE757E44E
:101DE0006DA17EA18FA198A50E94D52618160CF092
:101DF00052C020E030E040E251E469A17AA18BA119
:101E00009CA10E94DA26C258DE4F688379838A83B8
:101E10009B83CE57D140C258DE4F88819981AA81D9
:101E2000BB81CE57D140CE53DF4F88839983AA839D
:101E3000BB83C25CD040CE53DF4F688179818A81F9
:101E40009B81C25CD0400E943126CE57DE4F688312
:101E500079838A839B83C258D140CE57DE4FA881B5
:101E6000B981C258D140BAA7A9A710C080E991E0B2
:101E70009CA78BA78BA59CA50197F1F79CA78BA787
:101E8000000089A59AA501979AA789A789A59AA56F
:101E9000892B61F721C06DA17EA18FA198A50E9419
:101EA0003126CA57DE4F688379838A839B83C6585D
:101EB000D140CA57DE4FE881F981C658D140FAA710
:101EC000E9A789A59AA59EA78DA78DA59EA501978F
:101ED000F1F79EA78DA7000040E062E080E00E943D
:101EE000660180E090E0A0E8BFE389839A83AB833A
:101EF000BC832BEA3AEA4AEA50E469817A818B8111
:101F00009C810E94DA26C657DE4F688379838A83D4
:101F10009B83CA58D140C657DE4F88819981AA81D8
:101F2000BB81CA58D1408D839E83AF83B88720E0A0
:101F300030E040E850E469817A818B819C810E9485
:101F4000DA26C257DE4F688379838A839B83CE5813
:101F5000D140C257DE4F88819981AA81BB81CE587A
:101F6000D14089879A87AB87BC8720E030E040E882
:101F70005FE36D817E818F8198850E94BA258823D9
:101F80001CF481E08D871DC120E03FEF4FE757E44F
:101F900069857A858B859C850E94D52618160CF05C
:101FA000CEC020E030E04AE754E469817A818B8139
:101FB0009C810E94BF25CE56DE4F688379838A8339
:101FC0009B83C259D140CE56DE4F88819981AA8128
:101FD000BB81C259D1408E879F87A88BB98B20E0E7
:101FE00030E04AE755E46E857F85888999890E94AB
:101FF000DA26CA56DE4F688379838A839B83C65963
:10200000D140CA56DE4F88819981AA81BB81C659C9
:10201000D1408A8B9B8BAC8BBD8B20E030E040E8BD
:102020005FE36A897B898C899D890E94BA25882310
:102030002CF481E090E09F8B8E8B75C020E03FEF09
:102040004FE757E46A897B898C899D890E94D52650
:1020500018160CF052C020E030E040E251E46E85EA
:102060007F85888999890E94DA26C656DE4F688363
:1020700079838A839B83CA59D140C656DE4F8881B3
:102080009981AA81BB81CA59D140C254DF4F88834C
:102090009983AA83BB83CE5BD040C254DF4F688153
:1020A00079818A819B81CE5BD0400E943126C256C5
:1020B000DE4F688379838A839B83CE59D140C25691
:1020C000DE4FA881B981CE59D140BF8BAE8B10C0F5
:1020D00080E991E0998F888F888D998D0197F1F72C
:1020E000998F888F00008E899F8901979F8B8E8B97
:1020F0008E899F89892B61F721C06A897B898C89A8
:102100009D890E943126CE55DE4F688379838A836C
:102110009B83C25AD140CE55DE4FE881F981C25A25
:10212000D140FF8BEE8B8E899F899B8F8A8F8A8D02
:102130009B8D0197F1F79B8F8A8F000049C020E0AB
:1021400030E04FE753E46D817E818F8198850E9456
:10215000D526181614F569857A858B859C850E948D
:102160003126CA55DE4F688379838A839B83C65A9A
:10217000D140CA55DE4F88819981C65AD1409D8F82
:102180008C8F8C8D9D8D9F8F8E8F8E8D9F8D0197C7
:10219000F1F79F8F8E8F00001BC06D817E818F8134
:1021A00098850E943126C655DE4F688379838A83DD
:1021B0009B83CA5AD140C655DE4F9881CA5AD14036
:1021C0009D878D8588A388A18A95F1F788A3000053
:1021D0000000C355DE4F0FB6F894DEBF0FBECDBF73
:1021E000DF91CF911F910F9108950F931F93CF937C
:1021F000DF93CDB7DEB7C156D1400FB6F894DEBF3E
:102200000FBECDBF9E0127563F4FD9018C9341E0B1
:1022100061E080E00E9466019E0125573F4F80E00B
:1022200090E0A0E8BFE3F90180839183A283B383A8
:102230008E0101571F4FCE0185579F4F20E030E0A0
:102240004AE755E4DC016D917D918D919C910E944E
:10225000DA26CA54DF4F688379838A839B83C65BFF
:10226000D040CA54DF4F88819981AA81BB81C65B67
:10227000D040F80180839183A283B383CE0181573C
:102280009F4F20E030E040E85FE3DC016D917D91FD
:102290008D919C910E94BA2588234CF4CE018D56D5
:1022A0009F4F21E030E0FC0131832083A2C0CE01AA
:1022B00081579F4F20E03FEF4FE757E4DC016D91DE
:1022C0007D918D919C910E94D52618160CF073C0BB
:1022D000CE0185579F4F20E030E040E251E4FC0101
:1022E00060817181828193810E94DA26C654DF4F1A
:1022F000688379838A839B83CA5BD040C654DF4F4F
:1023000088819981AA81BB81CA5BD040CE54DF4FBE
:1023100088839983AA83BB83C25BD0408E010D560C
:102320001F4FCE54DF4F688179818A819B81C25BC8
:10233000D0400E943126C254DF4F688379838A835C
:102340009B83CE5BD040C254DF4FE881F981CE5BE6
:10235000D040D801ED93FC9325C0CE018B569F4F02
:1023600020E931E0DC012D933C93CE018B569F4F49
:10237000FC01808191810197F1F79E012B563F4F1F
:10238000D9018D939C930000CE018D569F4F9E01E5
:102390002D563F4FF9012081318121503109DC0157
:1023A0002D933C93CE018D569F4FFC0180819181EE
:1023B000892B99F639C08E010D561F4FCE018157DA
:1023C0009F4FDC016D917D918D919C910E943126F2
:1023D000CE53DF4F688379838A839B83C25CD0406E
:1023E000CE53DF4F88819981C25CD040F801918340
:1023F0008083CE0189569F4F9E012D563F4FD901B4
:102400002D913C91FC0131832083CE0189569F4F51
:10241000DC018D919C910197F1F79E0129563F4F68
:10242000F90191838083000041E062E080E00E9436
:1024300066019E0123583F4F80E090E0A0E8BFE393
:10244000F90180839183A283B3838E010F571F4FBD
:10245000CE0183589F4F20E030E04AE755E4DC018D
:102460006D917D918D919C910E94DA26CA53DF4F28
:10247000688379838A839B83C65CD040CA53DF4FCD
:1024800088819981AA81BB81C65CD040F801808394
:102490009183A283B383CE018F579F4F20E030E01A
:1024A00040E85FE3DC016D917D918D919C910E94EC
:1024B000BA2588234CF4CE018B579F4F21E030E0A2
:1024C000FC0131832083A2C0CE018F579F4F20E0B3
:1024D0003FEF4FE757E4DC016D917D918D919C9129
:1024E0000E94D52618160CF073C0CE0183589F4F5A
:1024F00020E030E040E251E4FC01608171818281A2
:1025000093810E94DA26C653DF4F688379838A83DA
:102510009B83CA5CD040C653DF4F88819981AA81D2
:10252000BB81CA5CD040C255DF4F88839983AA83A0
:10253000BB83CE5AD0408E010B571F4FC255DF4F81
:10254000688179818A819B81CE5AD0400E94312650
:10255000C253DF4F688379838A839B83CE5CD040EC
:10256000C253DF4FE881F981CE5CD040D801ED93B2
:10257000FC9325C0CE0189579F4F20E931E0DC0153
:102580002D933C93CE0189579F4FFC01808191810F
:102590000197F1F79E0129573F4FD9018D939C93E5
:1025A0000000CE018B579F4F9E012B573F4FF901E3
:1025B0002081318121503109DC012D933C93CE01E2
:1025C0008B579F4FFC0180819181892B99F639C0EF
:1025D0008E010B571F4FCE018F579F4FDC016D911E
:1025E0007D918D919C910E943126CE52DF4F688360
:1025F00079838A839B83C25DD040CE52DF4F88812E
:102600009981C25DD040F80191838083CE018757C4
:102610009F4F9E012B573F4FD9012D913C91FC01BB
:1026200031832083CE0187579F4FDC018D919C9190
:102630000197F1F79E0127573F4FF901918380835E
:102640000000CE0187569F4FDC018C9182958F70E0
:102650008170482F63E080E00E946601CE018756BA
:102660009F4FFC0180818295869587708170482FED
:1026700064E080E00E946601CE0187569F4FDC0136
:102680008C9182958695869583708170482F65E040
:1026900080E00E946601CE0187569F4FFC01808139
:1026A000881F8827881F482F66E080E00E94660107
:1026B0009E0121593F4F80E090E0A0E8BFE3F9017F
:1026C00080839183A283B3838E010D581F4FCE0167
:1026D00081599F4F20E030E04AE755E4DC016D91DD
:1026E0007D918D919C910E94DA26CA52DF4F6883BA
:1026F00079838A839B83C65DD040CA52DF4F88812D
:102700009981AA81BB81C65DD040F8018083918305
:10271000A283B383CE018D589F4F20E030E040E884
:102720005FE3DC016D917D918D919C910E94BA25B2
:1027300088234CF4CE0189589F4F21E030E0FC0102
:1027400031832083A2C0CE018D589F4F20E03FEF00
:102750004FE757E4DC016D917D918D919C910E9432
:10276000D52618160CF073C0CE0181599F4F20E07A
:1027700030E040E251E4FC0160817181828193810B
:102780000E94DA26C652DF4F688379838A839B834F
:10279000CA5DD040C652DF4F88819981AA81BB8132
:1027A000CA5DD040C655DF4F88839983AA83BB8317
:1027B000CA5AD0408E0109581F4FC655DF4F688155
:1027C00079818A819B81CA5AD0400E943126C252A7
:1027D000DF4F688379838A839B83CE5DD040C2526A
:1027E000DF4FE881F981CE5DD040D801ED93FC93B5
:1027F00025C0CE0187589F4F20E931E0DC012D93A1
:102800003C93CE0187589F4FFC01808191810197B5
:10281000F1F79E0127583F4FD9018D939C930000FB
:10282000CE0189589F4F9E0129583F4FF9012081C1
:10283000318121503109DC012D933C93CE0189581F
:102840009F4FFC0180819181892B99F639C08E01BF
:1028500009581F4FCE018D589F4FDC016D917D911E
:102860008D919C910E943126CE51DF4F68837983F0
:102870008A839B83C25ED040CE51DF4F888199818D
:10288000C25ED040F80191838083CE0185589F4F6E
:102890009E0129583F4FD9012D913C91FC01318374
:1028A0002083CE0185589F4FDC018D919C9101972B
:1028B000F1F79E0125583F4FF90191838083000075
:1028C00040E062E080E00E9466019E01215B3F4F94
:1028D00080E090E0A0E8BFE3F90180839183A283C8
:1028E000B3838E010D5A1F4FCE01815B9F4F2BEAA0
:1028F0003AEA4AEA50E4DC016D917D918D919C9118
:102900000E94DA26CA51DF4F688379838A839B83CA
:10291000C65ED040CA51DF4F88819981AA81BB81B0
:10292000C65ED040F80180839183A283B3838E0179
:10293000095A1F4FCE01815B9F4F20E030E040E8F5
:1029400050E4DC016D917D918D919C910E94DA267D
:10295000C651DF4F688379838A839B83CA5ED040E8
:10296000C651DF4F88819981AA81BB81CA5ED04060
:10297000F80180839183A283B383CE018D5A9F4F48
:1029800020E030E040E85FE3DC016D917D918D91C6
:102990009C910E94BA2588233CF4CE01855A9F4F12
:1029A00021E0FC0120839AC1CE01895A9F4F20E08B
:1029B0003FEF4FE757E4DC016D917D918D919C9144
:1029C0000E94D52618160CF023C1CE01815B9F4FC3
:1029D00020E030E04AE754E4FC01608171818281AB
:1029E00093810E94BF25C251DF4F688379838A8318
:1029F0009B83CE5ED040C251DF4F88819981AA81EE
:102A0000BB81CE5ED0409E01245A3F4FF9018083A6
:102A10009183A283B3838E01005A1F4FCE01845A43
:102A20009F4F20E030E04AE755E4DC016D917D9155
:102A30008D919C910E94DA26CE50DF4F6883798376
:102A40008A839B83C25FD040CE50DF4F88819981BB
:102A5000AA81BB81C25FD040F80180839183A283A9
:102A6000B383CE01805A9F4F20E030E040E85FE31F
:102A7000DC016D917D918D919C910E94BA258823F6
:102A80004CF4CE018C599F4F21E030E0FC013183A2
:102A90002083A2C0CE01805A9F4F20E03FEF4FE736
:102AA00057E4DC016D917D918D919C910E94D5261A
:102AB00018160CF073C0CE01845A9F4F20E030E00E
:102AC00040E251E4FC0160817181828193810E9426
:102AD000DA26CA50DF4F688379838A839B83C65F77
:102AE000D040CA50DF4F88819981AA81BB81C65FDF
:102AF000D040CA55DF4F88839983AA83BB83C65AC7
:102B0000D0408E010C591F4FCA55DF4F6881798123
:102B10008A819B81C65AD0400E943126C650DF4F21
:102B2000688379838A839B83CA5FD040C650DF4F16
:102B3000E881F981CA5FD040D801ED93FC9325C0AC
:102B4000CE018A599F4F20E931E0DC012D933C935F
:102B5000CE018A599F4FFC01808191810197F1F745
:102B60009E012A593F4FD9018D939C930000CE01BD
:102B70008C599F4F9E012C593F4FF9012081318183
:102B800021503109DC012D933C93CE018C599F4F8C
:102B9000FC0180819181892B99F639C08E010C59F5
:102BA0001F4FCE01805A9F4FDC016D917D918D9119
:102BB0009C910E943126C250DF4F688379838A83BB
:102BC0009B83CE5FD040C250DF4F88819981CE5F1A
:102BD000D040F80191838083CE0188599F4F9E0198
:102BE0002C593F4FD9012D913C91FC013183208319
:102BF000CE0188599F4FDC018D919C910197F1F78F
:102C00009E0128593F4FF9019183808300007EC0C7
:102C1000CE018D5A9F4F20E030E04FE753E4DC01B6
:102C20006D917D918D919C910E94D5261816D4F5B9
:102C30008E0106591F4FCE01895A9F4FFC016081BA
:102C40007181828193810E943126CE5FDE4F68833D
:102C500079838A839B83C250D140CE5FDE4FE88167
:102C6000F981C250D140D801ED93FC93CE01845933
:102C70009F4F9E0126593F4FD9012D913C91FC0158
:102C800031832083CE0184599F4FDC018D919C912B
:102C90000197F1F79E0124593F4FF90191838083F9
:102CA000000034C08E01055A1F4FCE018D5A9F4F30
:102CB000DC016D917D918D919C910E943126CA5FBE
:102CC000DE4F688379838A839B83C650D140CA5F75
:102CD000DE4F8881C650D140F8018083CE018259F1
:102CE0009F4F9E01255A3F4FD9012C91FC01208313
:102CF000CE0182599F4FDC018C91282F2A95F1F744
:102D0000CE0182599F4FFC012083000041E062E028
:102D100080E00E94660180E090E0A0E8BFE38FA71A
:102D200098ABA9ABBAAB2BEA3AEA4AEA50E46FA5F2
:102D300078A989A99AA90E94DA26C65FDE4F68831E
:102D400079838A839B83CA50D140C65FDE4F8881D6
:102D50009981AA81BB81CA50D1408BAB9CABADABF2
:102D6000BEAB20E030E040E850E46FA578A989A927
:102D70009AA90E94DA26C25FDE4F688379838A832C
:102D80009B83CE50D140C25FDE4F88819981AA815A
:102D9000BB81CE50D1408FAB98AFA9AFBAAF20E086
:102DA00030E040E85FE36BA97CA98DA99EA90E9451
:102DB000BA2588231CF481E08BAF76C120E03FEF79
:102DC0004FE757E46FA978AD89AD9AAD0E94D5263B
:102DD00018160CF013C120E030E04AE754E46FA568
:102DE00078A989A99AA90E94BF25CE5EDE4F688383
:102DF00079838A839B83C251D140CE5EDE4F888126
:102E00009981AA81BB81C251D1408CAF9DAFAEAF39
:102E1000BFAF8E01005C1F4F20E030E04AE755E471
:102E20006CAD7DAD8EAD9FAD0E94DA26CA5EDE4FE1
:102E3000688379838A839B83C651D140CA5EDE4F03
:102E400088819981AA81BB81C651D140F8018083D4
:102E50009183A283B383CE01805C9F4F20E030E05A
:102E600040E85FE3DC016D917D918D919C910E9422
:102E7000BA2588234CF4CE018C5B9F4F21E030E0D3
:102E8000FC01318320839EC0CE01805C9F4F20E0F7
:102E90003FEF4FE757E4DC016D917D918D919C915F
:102EA0000E94D52618160CF06FC020E030E040E2FA
:102EB00051E46CAD7DAD8EAD9FAD0E94DA26C65E4D
:102EC000DE4F688379838A839B83CA51D140C65E73
:102ED000DE4F88819981AA81BB81CA51D140CE55EC
:102EE000DF4F88839983AA83BB83C25AD0408E0167
:102EF0000C5B1F4FCE55DF4F688179818A819B81A2
:102F0000C25AD0400E943126C25EDE4F6883798368
:102F10008A839B83CE51D140C25EDE4FE881F98126
:102F2000CE51D140D801ED93FC9325C0CE018A5BF0
:102F30009F4F20E931E0DC012D933C93CE018A5B69
:102F40009F4FFC01808191810197F1F79E012A5BDF
:102F50003F4FD9018D939C930000CE018C5B9F4F16
:102F60009E012C5B3F4FF9012081318121503109B5
:102F7000DC012D933C93CE018C5B9F4FFC01808143
:102F80009181892B99F639C08E010C5B1F4FCE01C0
:102F9000805C9F4FDC016D917D918D919C910E9491
:102FA0003126CE5DDE4F688379838A839B83C2524C
:102FB000D140CE5DDE4F88819981C252D140F80167
:102FC00091838083CE01885B9F4F9E012C5B3F4F96
:102FD000D9012D913C91FC0131832083CE01885B86
:102FE0009F4FDC018D919C910197F1F79E01285B29
:102FF0003F4FF9019183808300006AC020E030E0F8
:103000004FE753E46BA97CA98DA99EA90E94D52600
:103010001816B4F58E01065B1F4F6FA978AD89AD08
:103020009AAD0E943126CA5DDE4F688379838A8318
:103030009B83C652D140CA5DDE4FE881F981C652FA
:10304000D140D801ED93FC93CE01845B9F4F9E014C
:10305000265B3F4FD9012D913C91FC0131832083A8
:10306000CE01845B9F4FDC018D919C910197F1F71C
:103070009E01245B3F4FF90191838083000028C0AB
:103080006BA97CA98DA99EA90E943126C65DDE4F41
:10309000688379838A839B83CA52D140C65DDE4FA1
:1030A000F881CA52D140FBAFCE01825B9F4F2BAD5E
:1030B000DC012C93CE01825B9F4FFC018081282F85
:1030C0002A95F1F7CE01825B9F4FDC012C93000023
:1030D000CE0187569F4FFC0180818170482F63E0AD
:1030E00080E00E946601CE0187569F4FDC018C91E3
:1030F00086958170482F64E080E00E946601CE01D1
:1031000087569F4FFC018081869586958170482F58
:1031100065E080E00E946601CE0187569F4FDC018A
:103120008C918695869586958170482F66E080E023
:103130000E94660180E090E0A0E8BFE389A39AA323
:10314000ABA3BCA320E030E04AE755E469A17AA133
:103150008BA19CA10E94DA26C25DDE4F6883798331
:103160008A839B83CE52D140C25DDE4F8881998194
:10317000AA81BB81CE52D1408DA39EA3AFA3B8A795
:1031800020E030E040E85FE36DA17EA18FA198A52B
:103190000E94BA2588232CF481E090E09AA789A7A1
:1031A00075C020E03FEF4FE757E46DA17EA18FA1EE
:1031B00098A50E94D52618160CF052C020E030E0E9
:1031C00040E251E469A17AA18BA19CA10E94DA2678
:1031D000CE5CDE4F688379838A839B83C253D14060
:1031E000CE5CDE4F88819981AA81BB81C253D140D8
:1031F000C256DF4F88839983AA83BB83CE59D040C0
:10320000C256DF4F688179818A819B81CE59D04037
:103210000E943126CA5CDE4F688379838A839B8350
:10322000C653D140CA5CDE4FA881B981C653D14094
:10323000BAA7A9A710C080E991E09CA78BA78BA58E
:103240009CA50197F1F79CA78BA7000089A59AA5DB
:1032500001979AA789A789A59AA5892B61F721C00B
:103260006DA17EA18FA198A50E943126C65CDE4F7C
:10327000688379838A839B83CA53D140C65CDE4FBF
:10328000E881F981CA53D140FAA7E9A789A59AA58F
:103290009EA78DA78DA59EA50197F1F79EA78DA747
:1032A000000040E062E080E00E94660180E090E083
:1032B000A0E8BFE389839A83AB83BC832BEA3AEA15
:1032C0004AEA50E469817A818B819C810E94DA26E6
:1032D000C25CDE4F688379838A839B83CE53D1405F
:1032E000C25CDE4F88819981AA81BB81CE53D140D7
:1032F0008D839E83AF83B88720E030E040E850E4C0
:1033000069817A818B819C810E94DA26CE5BDE4FB7
:10331000688379838A839B83C254D140CE5BDE4F1E
:1033200088819981AA81BB81C254D14089879A87BB
:10333000AB87BC8720E030E040E85FE36D817E81B1
:103340008F8198850E94BA2588231CF481E08D879F
:103350001DC120E03FEF4FE757E469857A858B85F3
:103360009C850E94D52618160CF0CEC020E030E0D7
:103370004AE754E469817A818B819C810E94BF2550
:10338000CA5BDE4F688379838A839B83C654D140AE
:10339000CA5BDE4F88819981AA81BB81C654D14026
:1033A0008E879F87A88BB98B20E030E04AE755E4F1
:1033B0006E857F85888999890E94DA26C65BDE4FF3
:1033C000688379838A839B83CA54D140C65BDE4F6E
:1033D00088819981AA81BB81CA54D1408A8B9B8BF9
:1033E000AC8BBD8B20E030E040E85FE36A897B89ED
:1033F0008C899D890E94BA2588232CF481E090E075
:103400009F8B8E8B75C020E03FEF4FE757E46A89B2
:103410007B898C899D890E94D52618160CF052C094
:1034200020E030E040E251E46E857F85888999890B
:103430000E94DA26C25BDE4F688379838A839B838E
:10344000CE54D140C25BDE4F88819981AA81BB8175
:10345000CE54D140C656DF4F88839983AA83BB835D
:10346000CA59D040C656DF4F688179818A819B81D5
:10347000CA59D0400E943126CE5ADE4F68837983E4
:103480008A839B83C255D140CE5ADE4FA881B98131
:10349000C255D140BF8BAE8B10C080E991E0998FAF
:1034A000888F888D998D0197F1F7998F888F00000B
:1034B0008E899F8901979F8B8E8B8E899F89892BFF
:1034C00061F721C06A897B898C899D890E94312698
:1034D000CA5ADE4F688379838A839B83C655D1405D
:1034E000CA5ADE4FE881F981C655D140FF8BEE8B79
:1034F0008E899F899B8F8A8F8A8D9B8D0197F1F78B
:103500009B8F8A8F000049C020E030E04FE753E4F2
:103510006D817E818F8198850E94D526181614F5BD
:1035200069857A858B859C850E943126C65ADE4F37
:10353000688379838A839B83CA55D140C65ADE4FFC
:1035400088819981CA55D1409D8F8C8F8C8D9D8D9E
:103550009F8F8E8F8E8D9F8D0197F1F79F8F8E8F0E
:1035600000001BC06D817E818F8198850E9431266D
:10357000C25ADE4F688379838A839B83CE55D140BC
:10358000C25ADE4F9881CE55D1409D878D8588A344
:1035900088A18A95F1F788A300000000CF59DE4F7B
:1035A0000FB6F894DEBF0FBECDBFDF91CF911F9154
:1035B0000F910895CF93DF9300D00F92CDB7DEB770
:1035C0009B838A8319820EC08981882F90E02A818B
:1035D0003B81820F931FFC0180810E94F51089813D
:1035E0008F5F89838981882F90E02A813B81820FB8
:1035F000931FFC018081882339F7000000000F90A1
:103600000F900F90DF91CF910895CF93DF93CDB7B7
:10361000DEB762970FB6F894DEBF0FBECDBF9A8BB0
:10362000898B89899A894AE050E09E012F5F3F4F3C
:10363000B9010E944727CE0101960E94DA1A0000C4
:1036400062960FB6F894DEBF0FBECDBFDF91CF916B
:103650000895CF93DF9300D00F92CDB7DEB78A8362
:103660006B838A81882F90E083309105C9F0843084
:103670009105D4F48230910579F083309105A4F45A
:10368000009719F0019721F00FC08B8189830CC03E
:103690008B81805C898308C08B81805F898304C0B3
:1036A0008B81805C89830000898180680E94DE04B0
:1036B00000000F900F900F90DF91CF910895CF935E
:1036C000DF9300D000D0CDB7DEB789836A835C83F7
:1036D0004B836A8189810E94291B8B819C810E9476
:1036E000DA1A00000F900F900F900F90DF91CF919A
:1036F0000895CF93DF93CDB7DEB781E00E94DE045B
:103700000000DF91CF910895CF93DF9300D0CDB724
:10371000DEB740E064E081E00E94410040E065E007
:1037200081E00E94410040E066E081E00E944100AB
:1037300040E067E081E00E94410040E062E083E019
:103740000E94410040E063E083E00E94410040E0CD
:1037500064E083E00E94410040E065E081E00E9477
:103760004100198230C089818C5F41E0682F81E07F
:103770000E94410089818C5F40E0682F81E00E94B7
:1037800066011A8213C08A818E5F682F83E00E94CF
:103790009202882341F48981982F990F990F8A8189
:1037A000890F8F5F14C08A818F5F8A838A818430FA
:1037B00050F389818C5F40E0682F81E00E944100D6
:1037C00089818F5F89838981843068F2CACF0F90A5
:1037D0000F90DF91CF910895CF93DF93CDB7DEB7F0
:1037E0000E9478030E9420030E944C030000DF9196
:1037F000CF910895CF93DF93CDB7DEB7A2970FB6E1
:10380000F894DEBF0FBECDBF0E94791B84E690E026
:103810000E94DA1A80E090E8ABE3B5E489839A83EA
:10382000AB83BC8320E030E04AE755E469817A81CC
:103830008B819C810E94DA266B8B7C8B8D8B9E8B7F
:103840008B899C89AD89BE898D839E83AF83B88720
:1038500020E030E040E85FE36D817E818F819885D4
:103860000E94BA2588232CF481E090E09A8789870A
:1038700054C020E03FEF4FE757E46D817E818F8198
:1038800098850E94D5261816D4F520E030E040E255
:1038900051E469817A818B819C810E94DA266F8B49
:1038A000788F898F9A8F8F89988DA98DBA8D8F8700
:1038B000988BA98BBA8B6F85788989899A890E94A0
:1038C00031266B8F7C8F8D8F9E8FAB8DBC8DBA8791
:1038D000A98710C080E991E09C878B878B859C85A8
:1038E0000197F1F79C878B87000089859A8501975E
:1038F0009A87898789859A85892B61F719C06D8197
:103900007E818F8198850E9431266F8F78A389A34D
:103910009AA38F8D98A19A87898789859A859E8792
:103920008D878D859E850197F1F79E878D87000095
:103930000E94A41C0000A2960FB6F894DEBF0FBE32
:10394000CDBFDF91CF910895CF93DF93CDB7DEB791
:10395000C656D1090FB6F894DEBF0FBECDBF0E9488
:10396000791B84E790E00E94DA1A60E081E00E940F
:10397000291B80E890E00E94DA1A0E94841B8130A3
:1039800009F09CC080E090E0AAEFB3E489839A83B9
:10399000AB83BC8320E030E04AE755E469817A815B
:1039A0008B819C810E94DA266FAB78AF89AF9AAF8A
:1039B0008FA998ADA9ADBAAD8D839E83AF83B8872B
:1039C00020E030E040E85FE36D817E818F81988563
:1039D0000E94BA2588232CF481E090E09A87898799
:1039E0005DC020E03FEF4FE757E46D817E818F811E
:1039F00098850E94D52618160CF03EC020E030E0D5
:103A000040E251E469817A818B819C810E94DA26AF
:103A10006BAF7CAF8DAF9EAF8BAD9CADADADBEAD92
:103A20008BA79CA7ADA7BEA76BA57CA58DA59EA5C2
:103A30000E94312623966CAF7DAF8EAF9FAF239748
:103A40002196AEADBFAD2197BA87A98710C080E996
:103A500091E09C878B878B859C850197F1F79C87EC
:103A60008B87000089859A8501979A878987898540
:103A70009A85892B61F71DC06D817E818F81988524
:103A80000E94312627966CAF7DAF8EAF9FAF2797F0
:103A900025968EAD9FAD25979A87898789859A85CA
:103AA0009E878D878D859E850197F1F79E878D87EF
:103AB00000000E94791B0E94C31E5AC10E94841BF1
:103AC000823009F0A6C080E090E0AAEFB3E48F87CF
:103AD000988BA98BBA8B20E030E04AE755E46F85DC
:103AE000788989899A890E94DA262B966CAF7DAFF6
:103AF0008EAF9FAF2B972B968CAD9DADAEADBFAD6E
:103B00002B978B8B9C8BAD8BBE8B20E030E040E8FD
:103B10005FE36B897C898D899E890E94BA25882301
:103B20002CF481E090E0988F8F8B61C020E03FEF14
:103B30004FE757E46B897C898D899E890E94D52641
:103B400018160CF042C020E030E040E251E46F85EE
:103B5000788989899A890E94DA262F966CAF7DAF81
:103B60008EAF9FAF2F972F968CAD9DADAEADBFADF5
:103B70002F978FA798ABA9ABBAAB6FA578A989A9E6
:103B80009AA90E94312663966CAF7DAF8EAF9FAF2E
:103B900063976196AEADBFAD6197B88FAF8B10C024
:103BA00080E991E09A8F898F898D9A8D0197F1F73D
:103BB0009A8F898F00008F89988D0197988F8F8BAE
:103BC0008F89988D892B61F71DC06B897C898D89C0
:103BD0009E890E94312667966CAF7DAF8EAF9FAFF6
:103BE000679765968EAD9FAD6597988F8F8B8F8900
:103BF000988D9C8F8B8F8B8D9C8D0197F1F79C8F6F
:103C00008B8F00000E94791B0E9425210E942D228B
:103C1000AFC00E94791B8EE890E00E94DA1A60E043
:103C200081E00E94291B8AE990E00E94DA1A80E074
:103C300090E8ABE3B5E48D8F9E8FAF8FB8A320E003
:103C400030E04AE755E46D8D7E8D8F8D98A10E94FE
:103C5000DA266B966CAF7DAF8EAF9FAF6B976B968E
:103C60008CAD9DADAEADBFAD6B9789A39AA3ABA351
:103C7000BCA320E030E040E85FE369A17AA18BA11A
:103C80009CA10E94BA2588232CF481E090E09EA399
:103C90008DA361C020E03FEF4FE757E469A17AA10F
:103CA0008BA19CA10E94D52618160CF042C020E0E2
:103CB00030E040E251E46D8D7E8D8F8D98A10E94A1
:103CC000DA266F966CAF7DAF8EAF9FAF6F976F9612
:103CD0008CAD9DADAEADBFAD6F978BAB9CABADABBF
:103CE000BEAB6BA97CA98DA99EA90E943126A39683
:103CF0006CAF7DAF8EAF9FAFA397A196AEADBFADBA
:103D0000A197BEA3ADA310C080E991E098A78FA3AF
:103D10008FA198A50197F1F798A78FA300008DA117
:103D20009EA101979EA38DA38DA19EA1892B61F7D2
:103D30001DC069A17AA18BA19CA10E943126A796E2
:103D40006CAF7DAF8EAF9FAFA797A5968EAD9FADA1
:103D5000A5979EA38DA38DA19EA19AA789A789A5AA
:103D60009AA50197F1F79AA789A700000E94FA1B6C
:103D70000000CA59DF4F0FB6F894DEBF0FBECDBFAB
:103D8000DF91CF9108950F931F93CF93DF93CDB71A
:103D9000DEB7CE56D1090FB6F894DEBF0FBECDBF49
:103DA00081E089831A82EAC00E94791B87EA90E049
:103DB0000E94DA1A60E081E00E94291B1B82B1C0D8
:103DC0008B81082F10E00E94841B282FCE018F9634
:103DD000800F911FDC012C9380E090E0AAEFB3E408
:103DE0008D839E83AF83B88720E030E04AE755E4B7
:103DF0006D817E818F8198850E94DA2623966CAF33
:103E00007DAF8EAF9FAF239723968CAD9DADAEADAA
:103E1000BFAD239789879A87AB87BC8720E030E0C6
:103E200040E85FE369857A858B859C850E94BA2589
:103E300088232CF481E090E09E878D8761C020E08C
:103E40003FEF4FE757E469857A858B859C850E9413
:103E5000D52618160CF042C020E030E040E251E4D4
:103E60006D817E818F8198850E94DA2627966CAFBE
:103E70007DAF8EAF9FAF279727968CAD9DADAEAD32
:103E8000BFAD27978BAB9CABADABBEAB6BA97CA991
:103E90008DA99EA90E9431262B966CAF7DAF8EAF67
:103EA0009FAF2B972996AEADBFAD2997BE87AD8743
:103EB00010C080E991E0988B8F878F859889019752
:103EC000F1F7988B8F8700008D859E8501979E87DF
:103ED0008D878D859E85892B61F71DC069857A85C3
:103EE0008B859C850E9431262F966CAF7DAF8EAF5F
:103EF0009FAF2F972D96EEADFFAD2D97FE87ED87E7
:103F00008D859E859A8B898B89899A890197F1F78E
:103F10009A8B898B00008AE20E94F5108B818F5F5B
:103F20008B838B81843008F44BCF19821C8220C094
:103F30008C81882F90E09E01215D3F4F820F931F5F
:103F4000DC012C918C81882F90E0805A9F4FFC01DE
:103F50008081281751F093E08A81F92FF81B8F2F69
:103F60000E94F72481E0898306C08C818F5F8C8357
:103F70008C818430E8F28A818F5F8A838A818330E2
:103F800020F48981813009F40FCF8981882309F0D9
:103F90004BC10E94472480E090E0AAE7B4E489A3E3
:103FA0009AA3ABA3BCA320E030E04AE755E469A1A3
:103FB0007AA18BA19CA10E94DA2663966CAF7DAF9B
:103FC0008EAF9FAF639763968CAD9DADAEADBFAD29
:103FD00063978DA39EA3AFA3B8A720E030E040E88D
:103FE0005FE36DA17EA18FA198A50E94BA258823C9
:103FF0002CF481E090E09AA789A761C020E03FEF10
:104000004FE757E46DA17EA18FA198A50E94D52608
:1040100018160CF042C020E030E040E251E469A103
:104020007AA18BA19CA10E94DA2667966CAF7DAF26
:104030008EAF9FAF679767968CAD9DADAEADBFADB0
:1040400067978BAF9CAFADAFBEAF6BAD7CAD8DADA9
:104050009EAD0E9431266B966CAF7DAF8EAF9FAF49
:104060006B976996AEADBFAD6997BAA7A9A710C007
:1040700080E991E09CA78BA78BA59CA50197F1F700
:104080009CA78BA7000089A59AA501979AA789A745
:1040900089A59AA5892B61F71DC06DA17EA18FA16D
:1040A00098A50E9431266F966CAF7DAF8EAF9FAF03
:1040B0006F976D96EEADFFAD6D97FAA7E9A789A54D
:1040C0009AA59EA78DA78DA59EA50197F1F79EA7FE
:1040D0008DA700000E94791B83EB90E00E94DA1A02
:1040E00080E090E8ABE3B5E48B8B9C8BAD8BBE8B13
:1040F00020E030E04AE755E46B897C898D899E8910
:104100000E94DA26A3966CAF7DAF8EAF9FAFA397C8
:10411000A3968CAD9DADAEADBFADA3978F8B988FA1
:10412000A98FBA8F20E030E040E85FE36F89788D97
:10413000898D9A8D0E94BA2588232CF481E090E025
:104140009C8F8B8F61C020E03FEF4FE757E46F8972
:10415000788D898D9A8D0E94D52618160CF042C054
:1041600020E030E040E251E46B897C898D899E89B2
:104170000E94DA26A7966CAF7DAF8EAF9FAFA79750
:10418000A7968CAD9DADAEADBFADA7978FAB98AFE9
:10419000A9AFBAAF6FA978AD89AD9AAD0E943126AB
:1041A000AB966CAF7DAF8EAF9FAFAB97A996AEAD20
:1041B000BFADA997BC8FAB8F10C080E991E09E8FF7
:1041C0008D8F8D8D9E8D0197F1F79E8F8D8F0000C5
:1041D0008B8D9C8D01979C8F8B8F8B8D9C8D892BCC
:1041E00061F71DC06F89788D898D9A8D0E94312667
:1041F000AF966CAF7DAF8EAF9FAFAF97AD96EEAD84
:10420000FFADAD97FC8FEB8F8B8D9C8D98A38F8F1F
:104210008F8D98A10197F1F798A38F8F00000E94CE
:10422000791B0E94A41C04C00E9499230E94FA1BBF
:104230000000C259DF4F0FB6F894DEBF0FBECDBFEE
:10424000DF91CF911F910F9108950F931F93CF93FB
:10425000DF93CDB7DEB7AA970FB6F894DEBF0FBED7
:10426000CDBF81E089831A82D9C00E94791B84EC7A
:1042700090E00E94DA1A60E081E00E94291B1B8214
:10428000A0C08B81082F10E00E94841B282FCE0134
:104290004396800F911FDC012C9380E090E0AAEF01
:1042A000B3E48D839E83AF83B88720E030E04AE794
:1042B00055E46D817E818F8198850E94DA266B8F0F
:1042C0007C8F8D8F9E8F8B8D9C8DAD8DBE8D8987C4
:1042D0009A87AB87BC8720E030E040E85FE36985E0
:1042E0007A858B859C850E94BA2588232CF481E0F1
:1042F00090E09E878D8754C020E03FEF4FE757E462
:1043000069857A858B859C850E94D5261816D4F5FB
:1043100020E030E040E251E46D817E818F8198851C
:104320000E94DA266F8F78A389A39AA38F8D98A114
:10433000A9A1BAA18F8B988FA98FBA8F6F89788D19
:10434000898D9A8D0E9431266BA37CA38DA39EA399
:10435000ABA1BCA1BE87AD8710C080E991E0988B6E
:104360008F878F8598890197F1F7988B8F87000049
:104370008D859E8501979E878D878D859E85892B4E
:1043800061F719C069857A858B859C850E943126E5
:104390006FA378A789A79AA7EFA1F8A5FE87ED8755
:1043A0008D859E859A8B898B89899A890197F1F7EA
:1043B0009A8B898B00008AE20E94F5108B818F5FB7
:1043C0008B838B81843008F45CCF19821C8220C0DF
:1043D0008C81882F90E09E012D5E3F4F820F931FAE
:1043E000DC012C918C81882F90E0805A9F4FFC013A
:1043F0008081281751F093E08A81F92FF81B8F2FC5
:104400000E94F72481E0898306C08C818F5F8C83B2
:104410008C818430E8F28A818F5F8A838A8183303D
:1044200020F48981813009F420CF8981882329F4FF
:104430000E942D220E94A41C04C00E9499230E9465
:10444000FA1B0000AA960FB6F894DEBF0FBECDBFD0
:10445000DF91CF911F910F9108950F931F93CF93E9
:10446000DF93CDB7DEB7C554D1090FB6F894DEBFE0
:104470000FBECDBF0E94791B84ED90E00E94DA1A36
:1044800060E081E00E94291B19829FC08981082F6A
:1044900010E00E94841B282FC801805A9F4FDC0126
:1044A0002C9380E090E0AAEFB3E48A839B83AC83F3
:1044B000BD8320E030E04AE755E46A817B818C814E
:1044C0009D810E94DA266EA37FA388A799A78EA15B
:1044D0009FA1A8A5B9A58E839F83A887B98720E04F
:1044E00030E040E85FE36E817F81888599850E9496
:1044F000BA2588232CF481E090E09B878A8754C0FA
:1045000020E03FEF4FE757E46E817F8188859985F2
:104510000E94D5261816D4F520E030E040E251E4A0
:104520006A817B818C819D810E94DA266AA77BA7A4
:104530008CA79DA78AA59BA5ACA5BDA58E8F9F8F97
:10454000A8A3B9A36E8D7F8D88A199A10E94312661
:104550006EA77FA788AB99ABAEA5BFA5BB87AA877F
:1045600010C080E991E09D878C878C859D8501979F
:10457000F1F79D878C8700008A859B8501979B8733
:104580008A878A859B85892B61F719C06E817F8117
:10459000888599850E9431266AAB7BAB8CAB9DAB3D
:1045A000EAA9FBA9FB87EA878A859B859F878E8777
:1045B0008E859F850197F1F79F878E8700008AE29D
:1045C0000E94F51089818F5F89838981843008F486
:1045D0005DCF0E94791B84EE90E00E94DA1A60E0C1
:1045E00081E00E94291B85EF90E00E94DA1A80E0AA
:1045F00090E0AAE7B4E4888B998BAA8BBB8B20E070
:1046000030E04AE755E4688979898A899B890E9464
:10461000DA266EAB7FAB88AF99AF8EA99FA9A8AD04
:10462000B9AD8C8B9D8BAE8BBF8B20E030E040E82A
:104630005FE36C897D898E899F890E94BA258823D2
:104640002CF481E090E0998F888F5BC020E03FEFF1
:104650004FE757E46C897D898E899F890E94D52612
:1046600018160CF03CC020E030E040E251E46889CC
:1046700079898A899B890E94DA266AAF7BAF8CAFE1
:104680009DAF8AAD9BADACADBDAD8AA39BA3ACA3E2
:10469000BDA36AA17BA18CA19DA10E943126229677
:1046A0006CAF7DAF8EAF9FAF2297AEADBFADB98F70
:1046B000A88F10C080E991E09B8F8A8F8A8D9B8D97
:1046C0000197F1F79B8F8A8F0000888D998D019754
:1046D000998F888F888D998D892B61F71DC06C8982
:1046E0007D898E899F890E94312626966CAF7DAF89
:1046F0008EAF9FAF26972496EEADFFAD2497F98F2E
:10470000E88F888D998D9D8F8C8F8C8D9D8D0197D5
:10471000F1F79D8F8C8F00000000CB5BDF4F0FB651
:10472000F894DEBF0FBECDBFDF91CF911F910F91E7
:104730000895CF93DF93CDB7DEB7A2970FB6F89465
:10474000DEBF0FBECDBF0E94791B84E091E00E94C6
:10475000DA1A0E945E0380E090E8ABE3B5E4898357
:104760009A83AB83BC8320E030E04AE755E469815B
:104770007A818B819C810E94DA266B8B7C8B8D8B5E
:104780009E8B8B899C89AD89BE898D839E83AF83E7
:10479000B88720E030E040E85FE36D817E818F8163
:1047A00098850E94BA2588232CF481E090E09A87AE
:1047B000898754C020E03FEF4FE757E46D817E8149
:1047C0008F8198850E94D5261816D4F520E030E018
:1047D00040E251E469817A818B819C810E94DA26D2
:1047E0006F8B788F898F9A8F8F89988DA98DBA8DCD
:1047F0008F87988BA98BBA8B6F85788989899A89DD
:104800000E9431266B8F7C8F8D8F9E8FAB8DBC8DE0
:10481000BA87A98710C080E991E09C878B878B8538
:104820009C850197F1F79C878B87000089859A8585
:1048300001979A87898789859A85892B61F719C09D
:104840006D817E818F8198850E9431266F8F78A33C
:1048500089A39AA38F8D98A19A87898789859A853C
:104860009E878D878D859E850197F1F79E878D8721
:1048700000000E946B030E94A41C0000A2960FB6C9
:10488000F894DEBF0FBECDBFDF91CF910895CF93D7
:10489000DF93CDB7DEB7A2970FB6F894DEBF0FBE99
:1048A000CDBF0E94791B83E191E00E94DA1A60E09B
:1048B00081E00E94291B0E94320380E090E8ABE374
:1048C000B5E489839A83AB83BC8320E030E04AE778
:1048D00055E469817A818B819C810E94DA266B8BF9
:1048E0007C8B8D8B9E8B8B899C89AD89BE898D83BA
:1048F0009E83AF83B88720E030E040E85FE36D81BE
:104900007E818F8198850E94BA2588232CF481E0CE
:1049100090E09A87898754C020E03FEF4FE757E443
:104920006D817E818F8198850E94D5261816D4F5D9
:1049300020E030E040E251E469817A818B819C8102
:104940000E94DA266F8B788F898F9A8F8F89988D46
:10495000A98DBA8D8F87988BA98BBA8B6F85788933
:1049600089899A890E9431266B8F7C8F8D8F9E8FCB
:10497000AB8DBC8DBA87A98710C080E991E09C8778
:104980008B878B859C850197F1F79C878B8700002F
:1049900089859A8501979A87898789859A85892B40
:1049A00061F719C06D817E818F8198850E943126C3
:1049B0006F8F78A389A39AA38F8D98A19A878987EF
:1049C00089859A859E878D878D859E850197F1F7CC
:1049D0009E878D8700000E943F030000A2960FB6BD
:1049E000F894DEBF0FBECDBFDF91CF910895CF9376
:1049F000DF93CDB7DEB7A3970FB6F894DEBF0FBE37
:104A0000CDBF8F870E94791B84E291E00E94DA1A61
:104A100060E081E00E94291B8F85882F90E00E9432
:104A2000051B86E391E00E94DA1A0E945E0380E093
:104A300090E8ABE3B5E489839A83AB83BC8320E041
:104A400030E04AE755E469817A818B819C810E943C
:104A5000DA266C8B7D8B8E8B9F8B8C899D89AE89A2
:104A6000BF898D839E83AF83B88720E030E040E824
:104A70005FE36D817E818F8198850E94BA258823AE
:104A80002CF481E090E09A87898754C020E03FEFC2
:104A90004FE757E46D817E818F8198850E94D526EE
:104AA0001816D4F520E030E040E251E469817A81C3
:104AB0008B819C810E94DA26688F798F8A8F9B8FE9
:104AC000888D998DAA8DBB8D888B998BAA8BBB8B7A
:104AD000688979898A899B890E9431266C8F7D8FAC
:104AE0008E8F9F8FAC8DBD8DBA87A98710C080E94E
:104AF00091E09C878B878B859C850197F1F79C873C
:104B00008B87000089859A8501979A87898789858F
:104B10009A85892B61F719C06D817E818F81988577
:104B20000E94312668A379A38AA39BA388A199A197
:104B30009A87898789859A859E878D878D859E85A9
:104B40000197F1F79E878D8700000E946B0300009C
:104B5000A3960FB6F894DEBF0FBECDBFDF91CF9105
:104B60000895CF93DF93CDB7DEB70E94EC1B0E9470
:104B7000FA1BFFCF0E94602608F481E008950E948E
:104B8000D3250C949B260E94942658F00E948D26D3
:104B900040F029F45F3F29F00C94842651110C94C5
:104BA000CF260C948A260E94AC2668F39923B1F391
:104BB000552391F3951B550BBB27AA276217730743
:104BC000840738F09F5F5F4F220F331F441FAA1FD7
:104BD000A9F335D00E2E3AF0E0E832D09150504093
:104BE000E695001CCAF72BD0FE2F29D0660F771F41
:104BF000881FBB1F261737074807AB07B0E809F027
:104C0000BB0B802DBF01FF2793585F4F3AF09E3FAB
:104C1000510578F00C9484260C94CF265F3FE4F382
:104C2000983ED4F3869577956795B795F7959F5FEE
:104C3000C9F7880F911D9695879597F90895E1E03A
:104C4000660F771F881FBB1F621773078407BA0799
:104C500020F0621B730B840BBA0BEE1F88F7E095F4
:104C600008950E94B42688F09F5798F0B92F99278D
:104C7000B751B0F0E1F0660F771F881F991F1AF047
:104C8000BA95C9F714C0B13091F00E94CE26B1E0B8
:104C900008950C94CE26672F782F8827B85F39F0B7
:104CA000B93FCCF3869577956795B395D9F73EF4E0
:104CB00090958095709561957F4F8F4F9F4F089588
:104CC000990F0008550FAA0BE0E8FEEF161617061D
:104CD000E807F907C0F012161306E407F50798F085
:104CE000621B730B840B950B39F40A2661F0232B9E
:104CF000242B252B21F408950A2609F4A140A6951A
:104D00008FEF811D811D089597F99F6780E870E0FE
:104D100060E008959FEF80EC089500240A94161631
:104D2000170618060906089500240A941216130699
:104D3000140605060895092E0394000C11F4882327
:104D400052F0BB0F40F4BF2B11F460FF04C06F5F43
:104D50007F4F8F4F9F4F089557FD9058440F551F19
:104D600059F05F3F71F04795880F97FB991F61F0ED
:104D70009F3F79F087950895121613061406551F64
:104D8000F2CF4695F1DF08C0161617061806991FD0
:104D9000F1CF86957105610508940895E894BB27C5
:104DA00066277727CB0197F908950E94602608F4BB
:104DB0008FEF08950E94ED260C949B260E948D266D
:104DC00038F00E94942620F0952311F00C9484264C
:104DD0000C948A2611240C94CF260E94AC2670F3E2
:104DE000959FC1F3950F50E0551F629FF001729F90
:104DF000BB27F00DB11D639FAA27F00DB11DAA1F9F
:104E0000649F6627B00DA11D661F829F2227B00DEB
:104E1000A11D621F739FB00DA11D621F839FA00D76
:104E2000611D221F749F3327A00D611D231F849FC6
:104E3000600D211D822F762F6A2F11249F5750401D
:104E40009AF0F1F088234AF0EE0FFF1FBB1F661F98
:104E5000771F881F91505040A9F79E3F510580F061
:104E60000C9484260C94CF265F3FE4F3983ED4F351
:104E7000869577956795B795F795E7959F5FC1F705
:104E8000FE2B880F911D9695879597F908954532C9
:104E9000510520F4423010F00C945227FB0110828F
:104EA000CB010895BB274A3031F4992322F4BDE2A7
:104EB000909581959F4F0C945E27BB27FB0155274A
:104EC000AA27880F991FAA1FA41710F0A41B839567
:104ED0005051B9F7A05DAA3308F0A95DA1930097DE
:104EE00079F7B111B1931192CB010C947727DC01C2
:104EF000FC01672F71917723E1F7329704C07C9111
:104F00006D9370836291AE17BF07C8F30895F8944C
:024F1000FFCFD1
:104F12000101020257656C636F6D65206D79207522
:104F22007365720031296F70656E2073616665006A
:104F320032296368616E676520706173730057720E
:104F42006F6E6720496E7075740053797374656D66
:104F520020726573657400456E74657220506173CA
:104F6200733A0042616C616E63653D3130303030BE
:104F720030302400456E746572206F6C642050617D
:104F820073733A00456E746572206E6577205061C6
:104F920073733A0050617373776F72642055706453
:104FA20061746564005375636365737366756C6CD5
:104FB20079212100546869656620416C657274200C
:104FC200212100547275652070617373776F72646A
:104FD2002021210057726F6E672070617373776FA3
:104FE200726420212100205472696573206C656609
:044FF2007420000027
:00000001FF
